:100000000C945D000C9485000C9485000C94850084
:100010000C9485000C9485000C9485000C9485004C
:100020000C9485000C9485000C9485000C9485003C
:100030000C9485000C9485000C9485000C9485002C
:100040000C9485000C9485000C9485000C9485001C
:100050000C9485000C9485000C9485000C9485000C
:100060000C9485000C9485000C9485000C948500FC
:100070000C9485000C9485000C948500494E4649EB
:100080004E4954594E414ECDCCCC3D0AD7233C1756
:10009000B7D13877CC2B329595E6241FB14F0A00A3
:1000A0000020410000C84200401C4620BCBE4CCA93
:1000B0001B0E5AAEC59D7400870011241FBECFEFE2
:1000C000D0E1DEBFCDBF12E0A0E0B1E0E0E4FEE1B0
:1000D00002C005900D92A631B107D9F712E0A6E152
:1000E000B2E001C01D92AF34B107E1F710E0CAEBF6
:1000F000D0E004C02297FE010E94970AC83BD107B6
:10010000C9F70E94B6000C941E0F0C940000CF9209
:10011000DF92EF92FF920F931F9386E192E00E948D
:100120007E0387E192E00E94200188E192E040E0B6
:1001300050E060E07FE30DEC1CEC2CEC3DE30F2E77
:10014000FDECCF2EFCECDF2EFCE4EF2EFDE3FF2ECA
:10015000F02D0E944F028CE292E00E944B011F9111
:100160000F91FF90EF90DF90CF9008958F929F9224
:10017000AF92BF92DF92EF92FF920F931F93DF93A4
:10018000CF9300D0CDB7DEB780E092E09A83898329
:100190008CE292E060E072E040E050E020E00E94FB
:1001A000D801EE24FF245E010894A11CB11C88EB49
:1001B000882E8BE0982E279A8CE292E068E172E01C
:1001C000A5010E94A80187E192E060E00E9427015A
:1001D0008C0169817A8188E192E0A8010E949D02E8
:1001E000D82E86E192E06D2D0E948A030894E11CCE
:1001F000F11C8AE0E816F10454F069817A818CE2FE
:1002000092E0A8012D2D0E94D801EE24FF2400E0E9
:1002100010E0C4010197F1F78CE292E068E172E02E
:10022000A5010E94A8010F5F1F4F0A30110589F731
:10023000C2CF10927C0086E880937A0008980895D7
:1002400010927C0086E880937A0008980895809147
:100250007C006F71807E862B80937C0080917A0079
:10026000806480937A0080917A0086FDFCCF209193
:10027000780030917900C9010895FC0110A2109214
:10028000C5008DE48093C40088E18093C10086E0BE
:100290008093C2000895FC0110A21092C5008DE465
:1002A0008093C40088E18093C10086E08093C200FF
:1002B0000895CF92DF92EF92FF920F931F93CF9307
:1002C000DF93EB018A01FC01919185B1805885B9DA
:1002D000933739F4CF010E949F0AF80191838083FC
:1002E0002EC0903751F4CF010E949B0AAB01BC0194
:1002F0000C811D812E813F810BC0993671F4CF0195
:100300000E949B0A8B019C01488159816A817B81F3
:10031000C884D984EA84FB840FC0943681F4CF0169
:100320000E949B0A6B017C01488159816A817B8113
:100330000C811D812E813F81CE010E947502DF91CB
:10034000CF911F910F91FF90EF90DF90CF90089584
:10035000EF92FF920F931F93CF93DF93EC017B01FA
:100360008A011BC09091C6009A3011F09D3061F453
:1003700088A1FE01E80FF11D1082CE01B701A8018E
:100380000E94590118A209C088A18F3130F4FE01E2
:10039000E80FF11D90838F5F88A38091C00087FDD7
:1003A000E1CFDF91CF911F910F91FF90EF900895D2
:1003B0000F931F93DF93CF93CDB7DEB7C054D040D8
:1003C0000FB6F894DEBF0FBECDBF8DB79EB70C97AA
:1003D0000FB6F8949EBF0FBE8DBFEDB7FEB7319636
:1003E0008E010F5F1F4FADB7BEB712961C930E93D1
:1003F000119780E490E09383828380E091E095837D
:1004000084837783668351874087228713860E947F
:10041000C50AF8018DB79EB70C960FB6F8949EBF2B
:100420000FBE8DBF07C08091C00085FFFCCF9093A9
:10043000C600319690819923B1F7C05CDF4F0FB6AB
:10044000F894DEBF0FBECDBFCF91DF911F910F910A
:100450000895CF92DF92EF92FF920F931F93FC01CA
:100460004083518362837383048315832683378398
:10047000C086D186E286F38680E090E0A0E0B0E01E
:1004800084879587A687B787808B918BA28BB38B48
:100490001F910F91FF90EF90DF90CF900895CF9232
:1004A000DF92EF92FF920F931F93FC0140835183E1
:1004B000628373830483158326833783C086D18642
:1004C000E286F38680E090E0A0E0B0E08487958744
:1004D000A687B787808B918BA28BB38B1F910F91CF
:1004E000FF90EF90DF90CF900895CF92DF92EF9240
:1004F000FF920F931F93FC014083518362837383A8
:100500000483158326833783C086D186E286F386EB
:100510001F910F91FF90EF90DF90CF900895FC0115
:1005200080E090E0A0E0B0E084879587A687B78759
:10053000808B918BA28BB38B08956F927F928F9259
:100540009F92AF92BF92CF92DF92EF92FF920F9362
:100550001F93CF93DF93EC017A0180E090E00E943B
:10056000F0075B016C0100E010E0C801B7010E94D8
:10057000F0079B01AC01C601B5010E9408055B01B3
:100580006C01688079808A809B802AE037ED43E2A5
:100590005CE30E9466052C853D854E855F850E9443
:1005A00039057B018C016C877D878E879F8720E0D2
:1005B00030E048E452E40E940C0718162CF480E066
:1005C00090E0A8E4B2E40EC0C801B70120E030E03A
:1005D00048E452EC0E946C07882344F480E090E0E9
:1005E000A8E4B2EC8C879D87AE87BF87C401B301B6
:1005F000A60195010E9466057B018C016C817D81BD
:100600008E819F812C853D854E855F850E94660584
:100610009B01AC01C801B7010E9439057B018C0127
:10062000C601B501288939894A895B890E94080574
:100630002AE037ED43E25CE30E94600628853985B5
:100640004A855B850E9466059B01AC01C801B70124
:100650000E94390520E030E040E053E40E94390573
:100660007B018C01A88AB98ACA8ADB8A20E030E043
:100670004FE753E40E940C0718165CF40F2EF0E0CD
:10068000EF2EF0E0FF2EFFE70F2FF3E41F2FF02DEA
:1006900014C0C801B70120E030E040E050E00E9403
:1006A0006C07882354F40F2EF0E0EF2EF0E0FF2EBD
:1006B000F0E00F2FF0E01F2FF02DC801B7010E94CE
:1006C0009003DC01CB01DF91CF911F910F91FF903F
:1006D000EF90DF90CF90BF90AF909F908F907F90E2
:1006E0006F900895559A81E8809380008AE0809306
:1006F000810010928900109288000895559A81E82F
:10070000809380008AE0809381001092890010928B
:100710008800089570E070938900609388000895C0
:10072000EF92FF920F931F937B018C0120E030E04A
:1007300040E05FE40E943C0788238CF0C801B701C9
:1007400020E030E040E05FE40E9408050E949C0742
:100750009B01AC01205030404040504806C0C801C9
:10076000B7010E949C079B01AC01B901CA011F910E
:100770000F91FF90EF900895A0E0B0E0E2ECF3E07D
:100780000C945E0ADC012B01FA019C91923008F472
:1007900039C1EB018881823008F433C1943069F4A7
:1007A000843009F02FC111969C9111978981981777
:1007B00009F428C1ADE0B1E025C1843009F421C1BC
:1007C0008230A9F4923009F01DC19A01AD0188E090
:1007D000EA010990AE01E90109929E018150C1F739
:1007E000E201898111969C918923818308C192300D
:1007F00009F407C112962D903C901397EB018A8162
:100800009B811496AD90BD90CD90DC901797EC80B5
:10081000FD800E811F819101281B390BB90137FF23
:1008200004C066277727621B730B603271050CF0DA
:1008300061C0121613066CF537014801062E04C07C
:1008400096948794779467940A94D2F721E030E0E5
:1008500040E050E004C0220F331F441F551F6A952B
:10086000D2F721503040404050402E213F214023BC
:100870005123211531054105510521F021E030E0DA
:1008800040E050E079018A01E628F7280829192973
:100890003CC0232BD1F1260E371E35014601062E12
:1008A00004C096948794779467940A94D2F721E0D1
:1008B00030E040E050E004C0220F331F441F551FBA
:1008C0006A95D2F721503040404050402A213B21C8
:1008D0004C215D21211531054105510521F021E013
:1008E00030E040E050E059016A01A628B728C82846
:1008F000D9280BC0821593052CF01C01AA24BB2417
:10090000650103C0EE24FF24870111969C91D2015A
:1009100011968C91981709F445C0992339F0A801D4
:1009200097012A193B094C095D0906C0A6019501EA
:100930002E193F09400B510B57FD08C0118233821D
:10094000228224833583468357831DC081E08183BF
:100950003382228288279927DC01821B930BA40B08
:10096000B50B84839583A683B7830DC0220F331FF5
:10097000441F551F24833583468357838281938187
:100980000197938382832481358146815781DA01DF
:10099000C9010197A109B1098F5F9F4FAF4FBF43B5
:1009A00028F30BC0918333822282EA0CFB1C0C1DBE
:1009B0001D1DE482F5820683178383E080832481F2
:1009C00035814681578157FF1AC0C901AA2797FD73
:1009D000A095BA2F81709070A070B0705695479511
:1009E00037952795822B932BA42BB52B8483958346
:1009F000A683B78382819381019693838283DF01EB
:100A000001C0D201CD01CDB7DEB7E2E10C947A0A84
:100A1000A0E2B0E0EEE0F5E00C946A0A69837A8324
:100A20008B839C832D833E834F835887E9E0EE2E92
:100A3000F12CEC0EFD1ECE010196B7010E948D092E
:100A40008E010F5E1F4FCE010596B8010E948D09E1
:100A50008A8991E089278A8BC701B801AE01475E78
:100A60005F4F0E94BC030E94B808A096E6E00C9479
:100A7000860AA0E2B0E0EFE3F5E00C946A0A69832D
:100A80007A838B839C832D833E834F835887F9E041
:100A9000EF2EF12CEC0EFD1ECE010196B7010E9447
:100AA0008D098E010F5E1F4FCE010596B8010E9481
:100AB0008D09C701B801AE01475E5F4F0E94BC03BC
:100AC0000E94B808A096E6E00C94860AA0E2B0E086
:100AD000ECE6F5E00C945E0A69837A838B839C8351
:100AE0002D833E834F835887CE010196BE01675FF9
:100AF0007F4F0E948D09CE010596BE016F5E7F4F2C
:100B00000E948D099985923088F089898230C8F0D9
:100B1000943019F4823051F404C0843029F49230B6
:100B200081F48DE091E0C6C0923049F420E09A85CE
:100B30008A89981321E02A87CE010996BBC08230AA
:100B400049F420E09A858A89981321E02A8BCE0106
:100B50004196B0C02D843E844F8458886D887E882D
:100B60008F88988CEE24FF248701AA24BB2465017A
:100B700040E050E060E070E0E0E0F0E0C101817052
:100B80009070892BE9F0E60CF71C081D191D9A01DD
:100B9000AB012A0D3B1D4C1D5D1D80E090E0A0E0E7
:100BA000B0E0E614F7040805190520F481E090E0B0
:100BB000A0E0B0E0BA01A901480F591F6A1F7B1FCE
:100BC000AA0CBB1CCC1CDD1C97FE08C081E090E089
:100BD000A0E0B0E0A82AB92ACA2ADB2A3196E0327E
:100BE000F10549F0660C771C881C991C56944794B3
:100BF00037942794C3CFFA85EA892B893C898B8562
:100C00009C85280F391F2E5F3F4F17C0CA01817086
:100C10009070892B61F016950795F794E79480E022
:100C200090E0A0E0B0E8E82AF92A0A2B1B2B769581
:100C30006795579547952F5F3F4F77FDE7CF0CC0DE
:100C4000440F551F661F771F17FD4160EE0CFF1CF8
:100C5000001F111F21503040403090E0590790E0B4
:100C6000690790E4790760F32B8F3C8FDB01CA01A1
:100C70008F779070A070B07080349105A105B10598
:100C800061F447FD0AC0E114F1040105110529F0E2
:100C9000405C5F4F6F4F7F4F40781A8EFE1711F008
:100CA00081E08A8F4D8F5E8F6F8F78A383E0898F6D
:100CB000CE0149960E94B808A096E2E10C947A0A07
:100CC000A8E1B0E0E6E6F6E00C94660A69837A8370
:100CD0008B839C832D833E834F835887B9E0EB2E13
:100CE000F12CEC0EFD1ECE010196B7010E948D097C
:100CF0008E010F5E1F4FCE010596B8010E948D092F
:100D00002985223008F47EC03989323010F4B801C8
:100D10007CC08A859A8989278A87243011F02230FD
:100D200031F4231709F06EC06DE071E06EC034300D
:100D300039F41D861E861F86188A1C861B8604C0F1
:100D4000323021F484E08987B7015FC02B853C8570
:100D50008B899C89281B390B3C872B87ED84FE846B
:100D60000F851889AD88BE88CF88D88CEA14FB041B
:100D70000C051D0540F4EE0CFF1C001F111F215037
:100D800030403C872B8720E030E040E050E080E0BE
:100D900090E0A0E0B0E460E070E0EA14FB040C0531
:100DA0001D0540F0282B392B4A2B5B2BEA18FB083A
:100DB0000C091D09B695A79597958795EE0CFF1C14
:100DC000001F111F6F5F7F4F6F31710531F7DA011F
:100DD000C9018F779070A070B07080349105A10523
:100DE000B10561F427FD0AC0E114F1040105110504
:100DF00029F0205C3F4F4F4F5F4F20782D873E8773
:100E00004F87588BBE01675F7F4FCB010E94B808A8
:100E10006896EAE00C94820AA8E1B0E0E2E1F7E02B
:100E20000C946A0A69837A838B839C832D833E8327
:100E30004F83588789E0E82EF12CEC0EFD1ECE0181
:100E40000196B7010E948D098E010F5E1F4FCE01E2
:100E50000596B8010E948D098985823040F0898904
:100E6000823028F0C701B8010E94050A01C08FEF47
:100E70006896E6E00C94860AA8E1B0E0E2E4F7E0C8
:100E80000C946A0A69837A838B839C832D833E83C7
:100E90004F83588789E0E82EF12CEC0EFD1ECE0121
:100EA0000196B7010E948D098E010F5E1F4FCE0182
:100EB0000596B8010E948D098985823040F08989A4
:100EC000823028F0C701B8010E94050A01C08FEFE7
:100ED0006896E6E00C94860AA8E1B0E0E2E7F7E065
:100EE0000C946A0A69837A838B839C832D833E8367
:100EF0004F83588789E0E82EF12CEC0EFD1ECE01C1
:100F00000196B7010E948D098E010F5E1F4FCE0121
:100F10000596B8010E948D098985823040F0898943
:100F2000823028F0C701B8010E94050A01C081E0A3
:100F30006896E6E00C94860AACE0B0E0E2EAF7E0FE
:100F40000C946E0A69837A838B839C83CE0101960D
:100F5000BE016B5F7F4F0E948D098D81823061F1F0
:100F6000823050F1843021F48E81882351F12EC0DB
:100F70002F81388537FD20C06E812F3131051CF05F
:100F80006623F9F023C08EE190E0821B930B298544
:100F90003A854B855C8504C05695479537952795CE
:100FA0008A95D2F76623B1F05095409530952195FA
:100FB0003F4F4F4F5F4F0EC020E030E040E050E029
:100FC00009C02FEF3FEF4FEF5FE704C020E030E0B4
:100FD00040E050E8B901CA012C96E2E00C948A0A7C
:100FE000A8E0B0E0E6EFF7E00C94660A7B018C0124
:100FF000611571058105910519F482E0898360C04E
:1010000083E089838EE1C82ED12CDC82CB82ED82F5
:10101000FE820F831887C801B7010E946908FC018E
:101020003197F7FF3BC0222733272E1B3F0B570179
:101030006801022E04C0D694C794B794A7940A946A
:10104000D2F740E050E060E070E081E090E0A0E0A6
:10105000B0E004C0880F991FAA1FBB1F2A95D2F7C2
:101060000197A109B1098E219F21A023B1230097E7
:10107000A105B10521F041E050E060E070E04A29AF
:101080005B296C297D294D835E836F8378878EE190
:1010900090E08E1B9F0B9C838B8312C0309781F056
:1010A0000E2E04C0EE0CFF1C001F111F0A94D2F775
:1010B000ED82FE820F831887CE1ADF0ADC82CB8294
:1010C0001A82CE0101960E94B8082896EAE00C9494
:1010D000820AEF92FF920F931F937B018C0180E0B5
:1010E000E81680E0F80681E0080780E0180788F439
:1010F0008FEFE816F1040105110531F028F088E0C2
:1011000090E0A0E0B0E017C080E090E0A0E0B0E0A8
:1011100012C080E0E81680E0F80680E0080781E071
:10112000180728F088E190E0A0E0B0E004C080E17A
:1011300090E0A0E0B0E020E230E040E050E0281B8A
:10114000390B4A0B5B0B04C016950795F794E7948F
:101150008A95D2F7F701EB5EFE4F8081281B31099B
:1011600041095109C9011F910F91FF90EF90089516
:10117000DF92EF92FF920F931F93FC01E480F580C2
:1011800006811781D1808081823048F480E090E030
:10119000A0E1B0E0E82AF92A0A2B1B2BA5C0843075
:1011A00009F49FC0823021F4EE24FF24870105C09A
:1011B000E114F1040105110519F4E0E0F0E096C036
:1011C000628173819FEF623879070CF05BC022E87F
:1011D0003FEF261B370B2A3131052CF020E030E0A1
:1011E00040E050E02AC0B801A701022E04C0769565
:1011F0006795579547950A94D2F781E090E0A0E073
:10120000B0E004C0880F991FAA1FBB1F2A95D2F710
:101210000197A109B1098E219F21A023B123009735
:10122000A105B10521F081E090E0A0E0B0E09A01D5
:10123000AB01282B392B4A2B5B2BDA01C9018F77A5
:101240009070A070B07080349105A105B10539F49B
:1012500027FF09C0205C3F4F4F4F5F4F04C0215C08
:101260003F4F4F4F5F4FE0E0F0E02030A0E03A0703
:10127000A0E04A07A0E45A0710F0E1E0F0E07901AD
:101280008A0127C06038710564F5FB01E158FF4F02
:10129000D801C7018F779070A070B070803491052D
:1012A000A105B10539F4E7FE0DC080E490E0A0E0AF
:1012B000B0E004C08FE390E0A0E0B0E0E80EF91EDB
:1012C0000A1F1B1F17FF05C016950795F794E79493
:1012D000319687E016950795F794E7948A95D1F7AC
:1012E00005C0EE24FF248701EFEFF0E06E2F679535
:1012F00066276795902F9F77D794DD24D7948E2FFC
:101300008695492F462B582F5D29B701CA011F9199
:101310000F91FF90EF90DF900895FC01DB01408179
:1013200051812281622F6F7770E0221F2227221FB6
:101330009381892F880F822B282F30E0991F9927BE
:10134000991F11969C93119721153105A9F5411507
:1013500051056105710511F482E037C082E89FEF05
:1013600013969C938E9312979A01AB0167E0220F1C
:10137000331F441F551F6A95D1F783E08C930DC02E
:10138000220F331F441F551F12968D919C91139766
:10139000019713969C938E931297203080E0380724
:1013A00080E0480780E4580758F314962D933D9346
:1013B0004D935C93179708952F3F310579F44115AC
:1013C00051056105710519F484E08C93089564FF5B
:1013D00003C081E08C9312C01C9210C02F57304084
:1013E00013963C932E93129783E08C9387E0440FDF
:1013F000551F661F771F8A95D1F7706414964D9319
:101400005D936D937C93179708951F93DC01FB0107
:101410009C91923008F447C08081823008F443C028
:10142000943051F411961C91843099F58181682F84
:1014300070E0611B71093FC0843021F0923031F4BB
:101440008230B9F18181882389F12DC011961C91D8
:1014500011978230F1F081811817D9F412962D91ED
:101460003C911397828193818217930794F02817F8
:101470003907BCF014968D919D910D90BC91A02DD3
:101480002481358146815781281739074A075B0730
:1014900018F4112341F00AC082179307A407B50777
:1014A00040F4112319F061E070E005C06FEF7FEFA9
:1014B00002C060E070E0CB011F9108952F923F922F
:1014C0004F925F926F927F928F929F92AF92BF9254
:1014D000CF92DF92EF92FF920F931F93CF93DF9300
:1014E000CDB7DEB7CA1BDB0B0FB6F894DEBF0FBE5D
:1014F000CDBF09942A88398848885F846E847D84AA
:101500008C849B84AA84B984C884DF80EE80FD80AB
:101510000C811B81AA81B981CE0FD11D0FB6F89421
:10152000DEBF0FBECDBFED010895EE0FFF1F05908A
:10153000F491E02D0994662777270C94D30CFC01D5
:1015400088279927E89421912032E9F3293010F077
:101550002E30C8F32B3241F02D3239F4689404C098
:101560000E94BD0A820F911D219120532A30C0F3A1
:101570001EF4909581959F4F08957AE0979F902D46
:10158000879F802D910D11240895AEE0B0E0EBEC23
:10159000FAE00C946C0A0D891E898F89988D97FF4B
:1015A00002C080E090E801979E838D831A830983AF
:1015B00086E08C839E01255E3F4FCE010196698DAA
:1015C0007A8DA9010E94F60A4D815E8157FD0AC0FD
:1015D0002F813885421753070CF49A01020F131F0D
:1015E000F80110822E96E4E00C94880AABE0B0E09B
:1015F000ECEFFAE00C945E0A3C012B015A01FC016D
:1016000017821682838181FD03C06FEF7FEFC6C111
:101610009AE0892E1E010894211C311CF3012381BC
:10162000F20123FD859123FF81912F01882309F485
:10163000B2C1853239F423FD859123FF81912F01B9
:10164000853229F490E0B3010E94690EE7CF982F0C
:10165000FF24EE249924FFE1FF15D0F09B3269F0BE
:101660009C3228F4903259F0933291F40EC09D329E
:1016700049F0903369F441E024C052E0F52A84E057
:10168000F82A28C098E0F92A25C0E0E1FE2A22C005
:10169000F7FC29C0892F80538A3070F4F6FE05C00C
:1016A000989C902C1124980E15C0E89CE02C1124D5
:1016B000E80EF0E2FF2A0EC09E3229F4F6FC6BC160
:1016C00040E4F42A07C09C3619F450E8F52A02C019
:1016D000983649F4F20123FD959123FF91912F0152
:1016E000992309F0B8CF892F8554833018F08052A0
:1016F000833038F444E050E0A40EB51E5FE3598314
:101700000FC0933631F0933779F0933509F056C016
:1017100020C0F5018081898342E050E0A40EB51E0F
:10172000610101E010E012C0F501C080D180F6FC3B
:1017300003C06FEF7FEF02C0692D70E042E050E020
:10174000A40EB51EC6010E945E0E8C015FE7F52255
:1017500014C0F501C080D180F6FC03C06FEF7FEFAD
:1017600002C0692D70E042E050E0A40EB51EC60133
:101770000E94530E8C0150E8F52AF3FE07C01AC0F0
:1017800080E290E0B3010E94690EEA948E2D90E011
:1017900008171907A8F30EC0F601F7FC8591F7FEAC
:1017A00081916F0190E0B3010E94690EE110EA940B
:1017B000015010400115110579F7EAC0943611F077
:1017C000993669F5F7FE08C0F50120813181428123
:1017D000538184E090E00AC0F501808191819C01F1
:1017E000442737FD4095542F82E090E0A80EB91EA3
:1017F0009FE6F92257FF09C05095409530952195F5
:101800003F4F4F4F5F4FE0E8FE2ACA01B901A101E7
:101810002AE030E00E94950ED82ED21840C09537AD
:1018200029F41F2D1F7E2AE030E01DC01F2D197FD7
:101830009F3661F0903720F4983509F0ACC00FC0A6
:10184000903739F0983709F0A6C004C028E030E09E
:101850000AC0106114FD146020E130E004C014FDE2
:10186000166020E132E017FF08C0F5016081718148
:101870008281938144E050E008C0F501808191812C
:10188000BC0180E090E042E050E0A40EB51EA10152
:101890000E94950ED82ED2188FE7F82EF122F6FE70
:1018A0000BC05EEFF522D91438F4F4FE07C0F2FC49
:1018B00005C08FEEF82202C01D2D01C0192DF4FEC7
:1018C0000DC0FE01ED0DF11D8081803319F499EEFC
:1018D000F92208C01F5FF2FE05C003C08F2D867875
:1018E00009F01F5F0F2DF3FC14C0F0FE0FC01E1592
:1018F00010F09D2C0BC09D2C9E0C911A1E2D06C025
:1019000080E290E0B3010E94690E1F5F1E15C0F3D4
:1019100004C01E1510F4E11A01C0EE2404FF0FC02C
:1019200080E390E0B3010E94690E02FF1DC001FD3B
:1019300003C088E790E00EC088E590E00BC0802FE0
:10194000867891F001FF02C08BE201C080E2F7FCD3
:101950008DE290E0B3010E94690E06C080E390E042
:10196000B3010E94690E9A94D914C0F3DA94F1017C
:10197000ED0DF11D808190E0B3010E94690EDD2024
:10198000A9F706C080E290E0B3010E94690EEA94D4
:10199000EE20C1F743CEF30166817781CB012B9610
:1019A000E2E10C947A0AA0E0B0E0E9EDFCE00C94EE
:1019B000640AEC015B016115710519F0FB0191836B
:1019C0008083F9908F2D90E00E94330E892BC9F708
:1019D000FDE2FF1621F4F990EE24E39405C02BE21A
:1019E000F21609F4F990EE248E0101501040C8015E
:1019F0006CE770E043E050E00E943B0E892B01F55C
:101A00008E010E5F1F4FC8016FE770E045E050E0A8
:101A10000E943B0E892B19F48E01095F1F4FA11400
:101A2000B10419F0F50111830083E0FC04C070E0FB
:101A300090E080E814C070E090E080E86FEF08C1AB
:101A4000C80164E870E043E050E00E943B0E892B3F
:101A500069F4A114B10429F470E090E080EC6FE720
:101A6000F7C02296F501D183C083F6CF882499244C
:101A700040E050E060E070E0EF2DE053EA30A0F588
:101A8000F2E0EF2A8E2D90E09C0128703070E2FE8B
:101A900006C0232B79F50894811C911C2BC0232BA5
:101AA00019F0089481089108DB01CA0112E0880F3F
:101AB000991FAA1FBB1F1A95D1F7480F591F6A1FFC
:101AC0007B1F440F551F661F771F4E0F511D611D51
:101AD000711D483929E9520729E9620729E172078E
:101AE00048F084E0E82A06C0EE3F31F4E3FC39C058
:101AF00098E0E92AF990C0CFE53311F0E53189F596
:101B000029912D3219F4E0E1EE2A05C02B3219F0AB
:101B100081E090E003C0299182E090E0E22FE05361
:101B2000EA3018F0C81BD90B1CC020E030E0FCE004
:101B300020383F075CF4C901880F991F880F991F4F
:101B4000280F391F220F331F2E0F311DE991E0534B
:101B5000EA3068F3E4FE03C0309521953F4F820ED2
:101B6000931ECE2CDD24E1FE07C0A114B10421F0A8
:101B70002197F501D183C083CB01BA010E94F00700
:101B80007B018C01F3E0CF22DD2423E0C216D104D7
:101B900021F417FB109517F9109557016801C8013A
:101BA000B70120E030E040E050E00E94F30E8823CF
:101BB00009F44AC097FE0DC02BE9E22E20E0F22E78
:101BC0009094819491089394C0E2D0E000E010E0FA
:101BD00012C093EBE92E90E0F92EF6CFF701259194
:101BE000359145915491C601B5010E9466055B018E
:101BF0006C018C1A9D0A8C169D0684F7D595C795A5
:101C00000F5F1F4F0630110529F08CEF9FEFE80E94
:101C1000F91EF1CFC501D6017C018D018C2D880FF5
:101C20008D2D881F8F3F51F0C601B50120E030E0B7
:101C300040E050E00E94F30E882331F482E290E00D
:101C400090934E0280934D027E2D9F2D802F612F09
:101C5000272F392F482F562FB901CA01CDB7DEB72C
:101C6000ECE00C94800A9111E6C0803219F08950A2
:101C70008550D0F70895FB01DC014150504088F0B9
:101C80008D9181341CF08B350CF4805E659161344C
:101C90001CF06B350CF4605E861B611171F3990BBF
:101CA0000895881BFCCFFC01059061507040011025
:101CB000D8F7809590958E0F9F1F0895FC01615075
:101CC000704001900110D8F7809590958E0F9F1F5E
:101CD00008950F931F93CF93DF938C01EB018B81BA
:101CE00081FF1BC082FF0DC02E813F818C819D81B1
:101CF0002817390764F4E881F9810193F983E883AF
:101D000006C0E885F985802F0995892B31F48E81ED
:101D10009F8101969F838E8302C00FEF1FEFC80142
:101D2000DF91CF911F910F910895FA01AA272830D2
:101D300051F1203181F1E8946F936E7F6E5F7F4F98
:101D40008F4F9F4FAF4FB1E03ED0B4E03CD0670F14
:101D5000781F891F9A1FA11D680F791F8A1F911D67
:101D6000A11D6A0F711D811D911DA11D20D009F4B7
:101D700068943F912AE0269F11243019305D3193F9
:101D8000DEF6CF010895462F4770405D4193B3E0E2
:101D90000FD0C9F7F6CF462F4F70405D4A3318F089
:101DA000495D31FD4052419302D0A9F7EACFB4E03A
:101DB000A6959795879577956795BA95C9F70097F2
:101DC0006105710508959B01AC010A2E0694579593
:101DD000479537952795BA95C9F7620F731F841FEA
:101DE000951FA01D089503D008F481E00895990F70
:101DF0000008550FAA0BE0E8FEEF16161706E807D5
:101E0000F907C0F012161306E407F50798F0621BF5
:101E1000730B840B950B39F40A2661F0232B242BCA
:101E2000252B21F408950A2609F4A140A6958FEFE9
:101E3000811D811D0895992788270895F894FFCF63
:101E4000442C25752C25752C25750D0A00000000E5
:101E50000000000000000102020303030304040465
:101E60000404040404050505050505050505050527
:101E70000505050505060606060606060606060607
:101E800006060606060606060606060606060606F2
:101E900006060606060707070707070707070707D7
:101EA00007070707070707070707070707070707C2
:101EB00007070707070707070707070707070707B2
:101EC00007070707070707070707070707070707A2
:101ED0000707070707080808080808080808080887
:101EE0000808080808080808080808080808080872
:101EF0000808080808080808080808080808080862
:101F00000808080808080808080808080808080851
:101F10000808080808080808080808080808080841
:101F20000808080808080808080808080808080831
:101F30000808080808080808080808080808080821
:101F40000808080808080808080808080808080811
:061F500008080808080063
:00000001FF
