:100000000C945D000C9485000C9485000C94850084
:100010000C9485000C9485000C9485000C9485004C
:100020000C9485000C9485000C9485000C9485003C
:100030000C9485000C9485000C9485000C9485002C
:100040000C9485000C9485000C9485000C9485001C
:100050000C9485000C9485000C9485000C9485000C
:100060000C9485000C9485000C9485000C948500FC
:100070000C9485000C9485000C9485004E414E49EB
:100080004E495459494E46CDCCCC3D0AD7233C1756
:10009000B7D13877CC2B329595E6241FB14F0A00A3
:1000A0000020410000C84200401C4620BCBE4CCA93
:1000B0001B0E5AAEC59D74003E0311241FBECFEF28
:1000C000D0E1DEBFCDBF11E0A0E0B1E0EEE3F4E1AE
:1000D00002C005900D92AE30B107D9F721E0AEE035
:1000E000B1E001C01D92A734B207E1F710E0CDE501
:1000F000D0E004C02197FE010E946403CC35D107F3
:10010000C9F70E94F0020C941D0A0C94000080E4D0
:1001100080937C0086E880937A000A980895809105
:100120007C00807E6F71862B80937C0080917A00AA
:10013000806480937A0080917A0086FDFCCF809164
:100140007800909179000895FC0110A21092CD00E2
:100150008DE48093CC0088E18093C90086E0809391
:10016000CA0008950F931F93CF93DF93CDB7DEB7E7
:10017000C054D1090FB6F894DEBF0FBECDBF1F9299
:100180002F935F934F937F936F9380E091E09F93C2
:100190008F931F9280E48F938E010F5F1F4F1F93E9
:1001A0000F930E94CB05F8010FB6F894DEBF0FBE87
:1001B000CDBF808181110CC0C05CDF4F0FB6F894B9
:1001C000DEBF0FBECDBFDF91CF911F910F9108957C
:1001D00031969091C80095FFFCCF8093CE00E9CF77
:1001E000CF92DF92EF92FF920F931F93CF93DF9303
:1001F000EB018A01FC012191CF0135B1305835B9AD
:10020000233771F40E94A505F80180839183DF9163
:10021000CF911F910F91FF90EF90DF90CF900895B5
:10022000203781F40E94A105AB01BC01C884D984A8
:10023000EA84FB840C811D812E813F81CE010E94C6
:10024000A301E5CF293669F40E94A1058B019C0129
:10025000C884D984EA84FB84488159816A817B817E
:10026000EDCF2436A1F60E94A1056B017C010C8123
:100270001D812E813F81F0CFCF93DF9300D000D03E
:1002800000D0CDB7DEB78D839E8369837A834B839D
:100290005C838091C80087FD09C00F900F900F907C
:1002A0000F900F900F90DF91CF9108958091CE0025
:1002B000AD81BE819096EC918A3011F08D3099F429
:1002C0002D813E812E0F311DF90110824B815C8101
:1002D00069817A818D819E810E94F000AD81BE810D
:1002E00090961C92D6CFEF31A0F691E09E0FAD8193
:1002F000BE8190969C939097AE0FB11DFD018083B7
:10030000C8CFCF92DF92EF92FF920F931F93FC0121
:1003100040835183628373830483158326833783E9
:10032000C086D186E286F3861486158616861786E1
:10033000108A118A128A138A1F910F91FF90EF90F1
:10034000DF90CF900895CF92DF92EF92FF920F93BC
:100350001F93FC014083518362837383048315835D
:1003600026833783C086D186E286F3861486158677
:1003700016861786108A118A128A138A1F910F9186
:10038000FF90EF90DF90CF900895FC0114861586C2
:1003900016861786108A118A128A138A08956F9218
:1003A0007F928F929F92AF92BF92CF92DF92EF9205
:1003B000FF920F931F93CF93DF93CDB7DEB72997AB
:1003C0000FB6F894DEBF0FBECDBF8C014D835E83A8
:1003D0006115710551F4FC01148615861686178681
:1003E000C12CD12C760180E0C4C080E090E00E9456
:1003F0007D0469837A838B839C832D813E81B9013F
:1004000080E090E00E947D049B01AC0169817A81CB
:100410008B819C810E946A036B017C0120E030E0AB
:1004200040E85EE369817A818B819C810E9434057A
:1004300069837A838B839C83F80120813181428197
:100440005381B601C7010E9434054B015C012AE0CB
:1004500037ED43E25CE3B601C7010E943405F801C1
:1004600024853585468557850E946B033B01898726
:100470009D8320E030E04AEF53E40E942F051816D8
:100480000CF493C020E030E04AEF53ECB3018985CF
:100490009D810E94D70387FF06C0612C712CFAEF63
:1004A000F98723EC2D8339852D81C301F8016486FA
:1004B000958736872787522F262D432F372D648126
:1004C0007581868197810E9434056D837E838F8339
:1004D00098879401A50169817A818B819C810E9412
:1004E0006B039B01AC016D817E818F8198850E9499
:1004F0006B0369837A838B839C83F801208931891C
:1005000042895389B601C7010E946A032AE037ED88
:1005100043E25CE30E94DC03F801208531854285DB
:1005200053850E9434059B01AC0169817A818B81DE
:100530009C810E946B0369837A838B839C8320E078
:1005400030E04FE753E40E942F051816ACF140E06D
:1005500050E09A0169817A818B819C810E94D70346
:1005600087FD41CF69817A818B819C810E944E04F5
:10057000862FA601B701F801C08A518BE28A738BDE
:1005800029960FB6F894DEBF0FBECDBFDF91CF9195
:100590001F910F91FF90EF90DF90CF90BF90AF90A1
:1005A0009F908F907F906F900895612C712C3AEFFF
:1005B000398783E48D8377CF8FEFDBCF549A81E245
:1005C000809380008AE08093810010928B001092CB
:1005D0008A00089570E070938B0060938A000895FC
:1005E00000D000D00F92CDB7DEB719821A8200E09A
:1005F00010E07E018FEFE81AF80AA7016FE271E0C0
:100600008EE091E00E943C0162E083E491E00E9470
:100610008F006C0169817A81AC018FE291E00E94C8
:10062000CF018B83682F84E491E00E94EA020F5F80
:100630001F4FEC82FD820A30110551F469817A81E5
:100640002B81A6018EE091E00E94B20000E010E054
:100650008AE0C82ED12C87EB9BE00197F1F700C010
:1006600000004C815D816FE271E08EE091E00E94BC
:100670003C0191E0C91AD10871F7BFCFCF92DF9248
:10068000EF92FF920F931F9384E491E00E94DE02A9
:1006900083E491E00E948700E12CF12C67010DECCE
:1006A0001CEC2CEC3DE360E07FE3A6018FE291E0DF
:1006B0000E9481018EE091E01F910F91FF90EF90D9
:1006C000DF90CF900C94A400EE0FFF1F0590F491E3
:1006D000E02D09945058BB27AA270E9482030C944E
:1006E000F5040E94E70438F00E94EE0420F039F48B
:1006F0009F3F19F426F40C94E4040EF4E095E7FB14
:100700000C94DE04E92F0E94060558F3BA1762071D
:1007100073078407950720F079F4A6F50C94280553
:100720000EF4E0950B2EBA2FA02D0B01B90190010C
:100730000C01CA01A0011124FF27591B99F0593F50
:1007400050F4503E68F11A16F040A22F232F342F98
:100750004427585FF3CF469537952795A795F040E6
:100760005395C9F77EF41F16BA0B620B730B840BFB
:10077000BAF09150A1F0FF0FBB1F661F771F881FB3
:10078000C2F70EC0BA0F621F731F841F48F487950B
:1007900077956795B795F7959E3F08F0B0CF9395FD
:1007A000880F08F09927EE0F9795879508950E9476
:1007B000BA0408F481E008950E94F0030C94F50453
:1007C0000E94EE0458F00E94E70440F029F45F3FD5
:1007D00029F00C94DE0451110C9429050C94E404C6
:1007E0000E94060568F39923B1F3552391F3951BF5
:1007F000550BBB27AA2762177307840738F09F5F42
:100800005F4F220F331F441FAA1FA9F335D00E2EAE
:100810003AF0E0E832D091505040E695001CCAF71B
:100820002BD0FE2F29D0660F771F881FBB1F2617DE
:1008300037074807AB07B0E809F0BB0B802DBF01B5
:10084000FF2793585F4F3AF09E3F510578F00C9484
:10085000DE040C9429055F3FE4F3983ED4F38695BB
:1008600077956795B795F7959F5FC9F7880F911DA5
:100870009695879597F90895E1E0660F771F881F91
:10088000BB1F621773078407BA0720F0621B730B44
:10089000840BBA0BEE1F88F7E09508950E940E05B1
:1008A00088F09F5798F0B92F9927B751B0F0E1F031
:1008B000660F771F881F991F1AF0BA95C9F714C0E1
:1008C000B13091F00E942805B1E008950C942805FC
:1008D000672F782F8827B85F39F0B93FCCF386951A
:1008E00077956795B395D9F73EF490958095709577
:1008F00061957F4F8F4F9F4F0895E89409C097FBF4
:100900003EF490958095709561957F4F8F4F9F4FE6
:100910009923A9F0F92F96E9BB279395F69587952A
:1009200077956795B795F111F8CFFAF4BB0F11F4ED
:1009300060FF1BC06F5F7F4F8F4F9F4F16C0882394
:1009400011F096E911C0772321F09EE8872F762FCA
:1009500005C0662371F096E8862F70E060E02AF00B
:100960009A95660F771F881FDAF7880F96958795F7
:1009700097F90895990F0008550FAA0BE0E8FEEFCC
:1009800016161706E807F907C0F012161306E40753
:10099000F50798F0621B730B840B950B39F40A264C
:1009A00061F0232B242B252B21F408950A2609F42A
:1009B000A140A6958FEF811D811D089597F99F672E
:1009C00080E870E060E008959FEF80EC08950024D7
:1009D0000A941616170618060906089500240A94A4
:1009E00012161306140605060895092E0394000C2A
:1009F00011F4882352F0BB0F40F4BF2B11F460FFB9
:100A000004C06F5F7F4F8F4F9F4F089557FD9058E1
:100A1000440F551F59F05F3F71F04795880F97FBC2
:100A2000991F61F09F3F79F087950895121613067C
:100A30001406551FF2CF4695F1DF08C016161706AB
:100A40001806991FF1CF86957105610508940895E0
:100A5000E894BB2766277727CB0197F908950E9472
:100A6000BA0408F48FEF08950E9447050C94F5042A
:100A70000E94E70438F00E94EE0420F0952311F064
:100A80000C94DE040C94E40411240C9429050E94B7
:100A9000060570F3959FC1F3950F50E0551F629FB7
:100AA000F001729FBB27F00DB11D639FAA27F00DC7
:100AB000B11DAA1F649F6627B00DA11D661F829FEE
:100AC0002227B00DA11D621F739FB00DA11D621FD3
:100AD000839FA00D611D221F749F3327A00D611DF0
:100AE000231F849F600D211D822F762F6A2F1124D2
:100AF0009F5750409AF0F1F088234AF0EE0FFF1F05
:100B0000BB1F661F771F881F91505040A9F79E3F5B
:100B1000510580F00C94DE040C9429055F3FE4F34A
:100B2000983ED4F3869577956795B795F795E795B1
:100B30009F5FC1F7FE2B880F911D9695879597F9BA
:100B40000895662777270C94C607FC018827992704
:100B5000E89421912032E9F3293010F02E30C8F3C7
:100B60002B3241F02D3239F4689404C00E94C30541
:100B7000820F911D219120532A30C0F31EF49095CD
:100B800081959F4F08957AE0979F902D879F802DA4
:100B9000910D11240895AEE0B0E0E1EDF5E00C9484
:100BA000E5090D891E898F89988D26E02C831A838B
:100BB000098397FF02C080E090E801979E838D83B0
:100BC000AE01455E5F4F698D7A8DCE0101960E9420
:100BD000FB054D815E8157FD0AC02F813885421784
:100BE00053070CF49A01020F131FF80110822E967E
:100BF000E4E00C94010AABE0B0E0E1E0F6E00C9434
:100C0000D7097C013B018A01FC011782168283818E
:100C100081FFB9C19AE0292ECE0101965C01F7014E
:100C20009381F30193FD859193FF81913F01882387
:100C300009F446C1853239F493FD859193FF819182
:100C40003F01853229F4B70190E00E943B09E7CFCC
:100C5000912C412C512CFFE1F51538F08B3209F124
:100C600088F4803201F1833221F157FC3AC020ED43
:100C7000280F2A3040F556FE1FC0929C200D1124EB
:100C8000922E06C08D3291F0803379F7689450F837
:100C9000F30193FD859193FF81913F018111DBCF9A
:100CA00020C0689451F8689452F8F2CF689453F8D1
:100CB000EFCF689454F8ECCF429C200D1124422EC3
:100CC000689455F8E5CF8E3229F456FCF9C0689443
:100CD00056F8DECF8C3619F4689457F8D9CF883699
:100CE000B9F2982F9F7D95549330C0F08336A1F1CF
:100CF0008337C1F1833509F05BC0F801C190D19011
:100D00008F01692D70E056FC02C06FEF7FEFC601C6
:100D10000E9425094C01689457F80AC00C5F1F4FC8
:100D20002FE3298388248394912C6501E89457F854
:100D300053FC04C04814190409F018F5342C81142C
:100D4000910431F5332009F46ACFB70180E290E0D5
:100D50000E943B093A94F6CFF801808189830E5FA7
:100D60001F4FE0CFF801C190D1908F01692D70E045
:100D700056FC02C06FEF7FEFC6010E9430094C01A4
:100D8000D5CFB70180E290E00E943B094A94D2CFD0
:100D9000F60157FC859157FE81916F01B70190E0F4
:100DA0000E943B0931103A94F1E08F1A9108C7CFA5
:100DB000843619F0893609F074C0F80157FE6AC00C
:100DC00061917191819191918F01252D2F76D22E74
:100DD00097FF09C090958095709561957F4F8F4FD3
:100DE0009F4F6894D7F82AE030E0A5010E946B0974
:100DF000C82ECA188C2C5D2CD6FE0CC0E89450F876
:100E0000C91440F4D4FE05C0D2FC03C0FD2DFE7E03
:100E10005F2E892C54FE8FC0FE01EC0DF11D8081E8
:100E2000803309F081C0252D297E522E852D8870B2
:100E3000382E53FC8FC050FE89C09C2C841418F4AB
:100E40004C0C942C981854FE8BC0B70180E390E0B2
:100E50000E943B0952FE09C088E790E051FE02C0A3
:100E600088E590E0B7010E943B09C91408F484C0EA
:100E7000CA94D12C9FEFC91AD90ACA0CDB1CF601FF
:100E800082916F01B70190E00E943B09AC14BD0450
:100E9000B1F758CF61917191072E000C880B990B17
:100EA00093CFD52CE894D4F82AE030E0853739F197
:100EB000952D997FD92E8F3601F148F48835A9F008
:100EC000F701868197812B96E2E10C94F309803734
:100ED00049F08837A9F7D4FE02C06894D2F820E11F
:100EE00030E00DC06894D4F8F6CF54FE03C0E92F6B
:100EF000E660DE2E20E132E002C028E030E0F801BA
:100F0000D7FE0DC061917191819191918F01A501E1
:100F10000E946B09C82ECA18E894D7F86BCF61916C
:100F2000719190E080E0F2CF52FC02C083947ECFBA
:100F3000839483947BCF852D867809F477CFF6CF81
:100F4000B70180E290E00E943B0983948414C0F3CF
:100F5000312C79CF342C3818841408F474CFF8CF9E
:100F6000852D867809F481CF8BE251FE80E257FC13
:100F70008DE2B70190E077CFB70180E390E00E9467
:100F80003B099A9472CF8FEF9FEF9DCFB0E0A0E026
:100F9000ECECF7E00C94DD097C016B016115710547
:100FA00019F0FB0191838083E7010991802F90E084
:100FB0000E9404095C01892BB1F50D32B1F508815D
:100FC000E701229611E07E01F1E0EF1AF10843E01B
:100FD00050E064E870E0C7010E940D09892B61F5BB
:100FE0007E0182E0E80EF11C45E050E06FE770E022
:100FF000C7010E940D09892B21F47E0197E0E90EBB
:10100000F11CC114D10419F0F601F182E08260E014
:1010100070E080E89FE7112309F4F1C060E070E020
:1010200080E89FEFECC07E01BFCF0B3219F408813E
:10103000E701229610E0C7CF43E050E06CE770E094
:10104000C7010E940D09892B61F4C114D10421F05C
:101050002296F601D183C08360E070E080EC9FE7C8
:10106000CEC0F12CE12C20E030E0A901F0EDF00F32
:10107000FA3058F5E12FE260812F887012FF08C026
:10108000811103C0FFEFEF1AFF0A09911E2FEECF67
:10109000882319F081E0E81AF108A5E0B0E00E9489
:1010A000CC099B01AC01220F331F441F551F2F0F8A
:1010B000311D411D511D283999E93907490799E129
:1010C000590718F3E12FE660E0CFFE3F29F413FD46
:1010D0003AC0E12FE860D9CF0F7D0534A1F58881B2
:1010E0008D3241F41061BE016E5F7F4F8981E2E075
:1010F000F0E007C0BE018B32B9F36F5F7F4FE1E0D4
:10110000F0E08053EB01CE1BDF0B8A30E0F4E0E827
:10111000AE16ECE0BE065CF4F501EE0FFF1FEE0F1D
:10112000FF1FAE0EBF1EAA0CBB1CA80EB11CEB010C
:10113000899180538A3090F114FF03C0B194A19437
:10114000B108EA0CFB1C11FF07C0C114D10421F047
:101150002197F601D183C083CA01B9010E947D04A1
:101160001370133009F490584B015C0120E030E01B
:10117000A9010E94D703882309F43FC0C3EBD0E044
:10118000F7FE05C0F194E194F108CBE9D0E06E01DF
:10119000F8E1CF1AD10800E210E00FC0BE01B7CFCE
:1011A000FE012591359145915491E01AF10AC5014E
:1011B000B4010E9434054B015C01D501C401E01665
:1011C000F10674F7249715950795CC15DD05A9F759
:1011D0008A2F880F8B2F881F8F3F49F020E030E047
:1011E000A901C501B4010E94D703811106C082E2A2
:1011F00090E09093460180934501C501B401CDB7BD
:10120000DEB7ECE00C94F90991110C94C909803215
:1012100019F089508550C8F70895FB01DC01415051
:10122000504088F08D9181341CF08B350CF4805E39
:10123000659161341CF06B350CF4605E861B6111A6
:1012400071F3990B0895881BFCCFFC010590615048
:1012500070400110D8F7809590958E0F9F1F0895CC
:10126000FC016150704001900110D8F78095909575
:101270008E0F9F1F08950F931F93CF93DF93182F07
:10128000092FEB018B8181FD09C01FEF0FEF812F2B
:10129000902FDF91CF911F910F91089582FF14C07D
:1012A0002E813F818C819D81281739073CF4E8818C
:1012B000F981CF0101969983888310838E819F8164
:1012C00001969F838E83E3CFE885F985812F099569
:1012D000892BA1F3DACFFA01AA27283051F1203166
:1012E00081F1E8946F936E7F6E5F7F4F8F4F9F4FBA
:1012F000AF4FB1E03ED0B4E03CD0670F781F891FFC
:101300009A1FA11D680F791F8A1F911DA11D6A0FC9
:10131000711D811D911DA11D20D009F468943F917C
:101320002AE0269F11243019305D3193DEF6CF017B
:101330000895462F4770405D4193B3E00FD0C9F741
:10134000F6CF462F4F70405D4A3318F0495D31FDAE
:101350004052419302D0A9F7EACFB4E0A695979501
:10136000879577956795BA95C9F7009761057105D7
:1013700008959B01AC010A2E069457954795379521
:101380002795BA95C9F7620F731F841F951FA01D7B
:1013900008959927882708950E940E0AA59F900D09
:1013A000B49F900DA49F800D911D112408952F923C
:1013B0003F924F925F926F927F928F929F92AF92E5
:1013C000BF92CF92DF92EF92FF920F931F93CF9332
:1013D000DF93CDB7DEB7CA1BDB0B0FB6F894DEBFC9
:1013E0000FBECDBF09942A88398848885F846E84EF
:1013F0007D848C849B84AA84B984C884DF80EE8039
:10140000FD800C811B81AA81B981CE0FD11D0FB641
:10141000F894DEBF0FBECDBFED010895A29FB001CD
:10142000B39FC001A39F700D811D1124911DB29F18
:0E143000700D811D1124911D0895F894FFCFB9
:0E143E00442C25752C25752C25750D0A0000F3
:00000001FF
